{
  "_format": "hh-sol-artifact-1",
  "contractName": "Scoring",
  "sourceName": "src/contracts/Scoring.sol",
  "abi": [
    {
      "inputs": [],
      "stateMutability": "nonpayable",
      "type": "constructor"
    },
    {
      "inputs": [
        {
          "internalType": "address",
          "name": "owner",
          "type": "address"
        }
      ],
      "name": "OwnableInvalidOwner",
      "type": "error"
    },
    {
      "inputs": [
        {
          "internalType": "address",
          "name": "account",
          "type": "address"
        }
      ],
      "name": "OwnableUnauthorizedAccount",
      "type": "error"
    },
    {
      "anonymous": false,
      "inputs": [
        {
          "indexed": true,
          "internalType": "address",
          "name": "previousOwner",
          "type": "address"
        },
        {
          "indexed": true,
          "internalType": "address",
          "name": "newOwner",
          "type": "address"
        }
      ],
      "name": "OwnershipTransferred",
      "type": "event"
    },
    {
      "anonymous": false,
      "inputs": [
        {
          "indexed": true,
          "internalType": "address",
          "name": "user",
          "type": "address"
        },
        {
          "components": [
            {
              "internalType": "uint256",
              "name": "quizCompletions",
              "type": "uint256"
            },
            {
              "internalType": "bool",
              "name": "hasSubscribedToNewsletter",
              "type": "bool"
            },
            {
              "internalType": "bool",
              "name": "hasBookedCall",
              "type": "bool"
            }
          ],
          "indexed": false,
          "internalType": "struct Scoring.UserScore",
          "name": "score",
          "type": "tuple"
        }
      ],
      "name": "ScoreUpdated",
      "type": "event"
    },
    {
      "inputs": [
        {
          "internalType": "address",
          "name": "user",
          "type": "address"
        }
      ],
      "name": "getUserScore",
      "outputs": [
        {
          "components": [
            {
              "internalType": "uint256",
              "name": "quizCompletions",
              "type": "uint256"
            },
            {
              "internalType": "bool",
              "name": "hasSubscribedToNewsletter",
              "type": "bool"
            },
            {
              "internalType": "bool",
              "name": "hasBookedCall",
              "type": "bool"
            }
          ],
          "internalType": "struct Scoring.UserScore",
          "name": "",
          "type": "tuple"
        }
      ],
      "stateMutability": "view",
      "type": "function"
    },
    {
      "inputs": [],
      "name": "owner",
      "outputs": [
        {
          "internalType": "address",
          "name": "",
          "type": "address"
        }
      ],
      "stateMutability": "view",
      "type": "function"
    },
    {
      "inputs": [],
      "name": "renounceOwnership",
      "outputs": [],
      "stateMutability": "nonpayable",
      "type": "function"
    },
    {
      "inputs": [],
      "name": "submitQuizAttestation",
      "outputs": [],
      "stateMutability": "nonpayable",
      "type": "function"
    },
    {
      "inputs": [
        {
          "internalType": "address",
          "name": "newOwner",
          "type": "address"
        }
      ],
      "name": "transferOwnership",
      "outputs": [],
      "stateMutability": "nonpayable",
      "type": "function"
    },
    {
      "inputs": [
        {
          "internalType": "address",
          "name": "user",
          "type": "address"
        },
        {
          "internalType": "bool",
          "name": "booked",
          "type": "bool"
        }
      ],
      "name": "updateCallBooking",
      "outputs": [],
      "stateMutability": "nonpayable",
      "type": "function"
    },
    {
      "inputs": [
        {
          "internalType": "address",
          "name": "user",
          "type": "address"
        },
        {
          "internalType": "bool",
          "name": "subscribed",
          "type": "bool"
        }
      ],
      "name": "updateNewsletterSubscription",
      "outputs": [],
      "stateMutability": "nonpayable",
      "type": "function"
    },
    {
      "inputs": [
        {
          "internalType": "address",
          "name": "",
          "type": "address"
        }
      ],
      "name": "userScores",
      "outputs": [
        {
          "internalType": "uint256",
          "name": "quizCompletions",
          "type": "uint256"
        },
        {
          "internalType": "bool",
          "name": "hasSubscribedToNewsletter",
          "type": "bool"
        },
        {
          "internalType": "bool",
          "name": "hasBookedCall",
          "type": "bool"
        }
      ],
      "stateMutability": "view",
      "type": "function"
    }
  ],
  "bytecode": "0x608060405234801561001057600080fd5b5033600073ffffffffffffffffffffffffffffffffffffffff168173ffffffffffffffffffffffffffffffffffffffff16036100845760006040517f1e4fbdf700000000000000000000000000000000000000000000000000000000815260040161007b919061019e565b60405180910390fd5b6100938161009960201b60201c565b506101b9565b60008060009054906101000a900473ffffffffffffffffffffffffffffffffffffffff169050816000806101000a81548173ffffffffffffffffffffffffffffffffffffffff021916908373ffffffffffffffffffffffffffffffffffffffff1602179055508173ffffffffffffffffffffffffffffffffffffffff168173ffffffffffffffffffffffffffffffffffffffff167f8be0079c531659141344cd1fd0a4f28419497f9722a3daafe3b4186f6b6457e060405160405180910390a35050565b600073ffffffffffffffffffffffffffffffffffffffff82169050919050565b60006101888261015d565b9050919050565b6101988161017d565b82525050565b60006020820190506101b3600083018461018f565b92915050565b610b08806101c86000396000f3fe608060405234801561001057600080fd5b50600436106100885760003560e01c80638da5cb5b1161005b5780638da5cb5b146100ef578063b34e0c471461010d578063ceae05951461013d578063f2fde38b1461015957610088565b80631413d4c01461008d578063715018a6146100bf57806379894e77146100c95780638c139ddb146100d3575b600080fd5b6100a760048036038101906100a291906107ba565b610175565b6040516100b69392919061081b565b60405180910390f35b6100c76101b9565b005b6100d16101cd565b005b6100ed60048036038101906100e8919061087e565b6102b3565b005b6100f76103a5565b60405161010491906108cd565b60405180910390f35b610127600480360381019061012291906107ba565b6103ce565b6040516101349190610948565b60405180910390f35b6101576004803603810190610152919061087e565b610467565b005b610173600480360381019061016e91906107ba565b610559565b005b60016020528060005260406000206000915090508060000154908060010160009054906101000a900460ff16908060010160019054906101000a900460ff16905083565b6101c16105df565b6101cb6000610666565b565b600160003373ffffffffffffffffffffffffffffffffffffffff1673ffffffffffffffffffffffffffffffffffffffff168152602001908152602001600020600001600081548092919061022090610992565b91905055503373ffffffffffffffffffffffffffffffffffffffff167f5ad4edf8d7983e28f0596ede94f39f28cf4e3701bb5ba6e1aafa524874e68ac9600160003373ffffffffffffffffffffffffffffffffffffffff1673ffffffffffffffffffffffffffffffffffffffff1681526020019081526020016000206040516102a99190610ab7565b60405180910390a2565b6102bb6105df565b80600160008473ffffffffffffffffffffffffffffffffffffffff1673ffffffffffffffffffffffffffffffffffffffff16815260200190815260200160002060010160016101000a81548160ff0219169083151502179055508173ffffffffffffffffffffffffffffffffffffffff167f5ad4edf8d7983e28f0596ede94f39f28cf4e3701bb5ba6e1aafa524874e68ac9600160008573ffffffffffffffffffffffffffffffffffffffff1673ffffffffffffffffffffffffffffffffffffffff1681526020019081526020016000206040516103999190610ab7565b60405180910390a25050565b60008060009054906101000a900473ffffffffffffffffffffffffffffffffffffffff16905090565b6103d6610732565b600160008373ffffffffffffffffffffffffffffffffffffffff1673ffffffffffffffffffffffffffffffffffffffff168152602001908152602001600020604051806060016040529081600082015481526020016001820160009054906101000a900460ff161515151581526020016001820160019054906101000a900460ff1615151515815250509050919050565b61046f6105df565b80600160008473ffffffffffffffffffffffffffffffffffffffff1673ffffffffffffffffffffffffffffffffffffffff16815260200190815260200160002060010160006101000a81548160ff0219169083151502179055508173ffffffffffffffffffffffffffffffffffffffff167f5ad4edf8d7983e28f0596ede94f39f28cf4e3701bb5ba6e1aafa524874e68ac9600160008573ffffffffffffffffffffffffffffffffffffffff1673ffffffffffffffffffffffffffffffffffffffff16815260200190815260200160002060405161054d9190610ab7565b60405180910390a25050565b6105616105df565b600073ffffffffffffffffffffffffffffffffffffffff168173ffffffffffffffffffffffffffffffffffffffff16036105d35760006040517f1e4fbdf70000000000000000000000000000000000000000000000000000000081526004016105ca91906108cd565b60405180910390fd5b6105dc81610666565b50565b6105e761072a565b73ffffffffffffffffffffffffffffffffffffffff166106056103a5565b73ffffffffffffffffffffffffffffffffffffffff16146106645761062861072a565b6040517f118cdaa700000000000000000000000000000000000000000000000000000000815260040161065b91906108cd565b60405180910390fd5b565b60008060009054906101000a900473ffffffffffffffffffffffffffffffffffffffff169050816000806101000a81548173ffffffffffffffffffffffffffffffffffffffff021916908373ffffffffffffffffffffffffffffffffffffffff1602179055508173ffffffffffffffffffffffffffffffffffffffff168173ffffffffffffffffffffffffffffffffffffffff167f8be0079c531659141344cd1fd0a4f28419497f9722a3daafe3b4186f6b6457e060405160405180910390a35050565b600033905090565b6040518060600160405280600081526020016000151581526020016000151581525090565b600080fd5b600073ffffffffffffffffffffffffffffffffffffffff82169050919050565b60006107878261075c565b9050919050565b6107978161077c565b81146107a257600080fd5b50565b6000813590506107b48161078e565b92915050565b6000602082840312156107d0576107cf610757565b5b60006107de848285016107a5565b91505092915050565b6000819050919050565b6107fa816107e7565b82525050565b60008115159050919050565b61081581610800565b82525050565b600060608201905061083060008301866107f1565b61083d602083018561080c565b61084a604083018461080c565b949350505050565b61085b81610800565b811461086657600080fd5b50565b60008135905061087881610852565b92915050565b6000806040838503121561089557610894610757565b5b60006108a3858286016107a5565b92505060206108b485828601610869565b9150509250929050565b6108c78161077c565b82525050565b60006020820190506108e260008301846108be565b92915050565b6108f1816107e7565b82525050565b61090081610800565b82525050565b60608201600082015161091c60008501826108e8565b50602082015161092f60208501826108f7565b50604082015161094260408501826108f7565b50505050565b600060608201905061095d6000830184610906565b92915050565b7f4e487b7100000000000000000000000000000000000000000000000000000000600052601160045260246000fd5b600061099d826107e7565b91507fffffffffffffffffffffffffffffffffffffffffffffffffffffffffffffffff82036109cf576109ce610963565b5b600182019050919050565b60008160001c9050919050565b6000819050919050565b6000610a046109ff836109da565b6109e7565b9050919050565b600060ff82169050919050565b6000610a2b610a26836109da565b610a0b565b9050919050565b60008160081c9050919050565b6000610a52610a4d83610a32565b610a0b565b9050919050565b606082016000808301549050610a6e816109f1565b610a7b60008601826108e8565b5060018301549050610a8c81610a18565b610a9960208601826108f7565b50610aa381610a3f565b610ab060408601826108f7565b5050505050565b6000606082019050610acc6000830184610a59565b9291505056fea26469706673582212209c8257c3eea1eb89ae47228bdc17b5182ab44626ef23ef770ddc1fc2899f883d64736f6c63430008140033",
  "linkReferences": {},
  "deployedLinkReferences": {}
}